:020000040000FA
:0400000000EF10F00D
:0400080004EF10F001
:040018000CEF10F0E9
:0420000024EF10F0C9
:0420080016EF10F0CF
:0420180017EF10F0BE
:02202A000000B4
:04202C001100D8CFF8
:1020300001F3E8CF00F3E0CF02F302C3E0FF00C3F7
:10204000E8FF01C3D8FF1000310E0A0FFFD72EECB6
:1020500010F08D842EEC10F08D9412000F0E036F93
:10206000FF0E046F042F32EF10F0032F30EF10F04B
:102070001200100E056FFF0E046FFF0E036F032F8B
:102080003FEF10F0042F3DEF10F0052F3BEF10F065
:102090001200086B076B066B0A6B0A2B0A0E095FAE
:1020A000FCE2092709C308F30A070AC309F30A6B0C
:1020B0000A2B0A0E095FFCE2092709C307F30A0786
:0620C0000AC306F3120042
:00000001FF
