:020000040000FA
:0400000000EF10F00D
:0400080004EF10F001
:040018000CEF10F0E9
:0420000024EF10F0C9
:0420080016EF10F0CF
:0420180017EF10F0BE
:02202A000000B4
:04202C001100D8CFF8
:1020300001F3E8CF00F3E0CF02F302C3E0FF00C3F7
:10204000E8FF01C3D8FF1000956A0A0EC16E956AB9
:102050009490969096948B80FF0E056F5EEC10F036
:10206000052F2EEF10F08D908D94010E8C6E57EC95
:1020700010F0380E8C6E57EC10F00C0E8C6E57EC86
:1020800010F0060E8C6E57EC10F0010E8C6E57ECB3
:1020900010F08D908D94800E8C6E57EC10F08D802A
:1020A0008D94050E300F8C6E57EC10F0FFD75EEC60
:1020B00010F08D845EEC10F08D9412000F0E036F03
:1020C000FF0E046F042F62EF10F0032F60EF10F08B
:1020D0001200100E056FFF0E046FFF0E036F032F2B
:1020E0006FEF10F0042F6DEF10F0052F6BEF10F075
:1020F0001200086B076B066B0A6B0A2B0A0E095F4E
:10210000FCE2092709C308F30A070AC309F30A6BAB
:102110000A2B0A0E095FFCE2092709C307F30A0725
:062120000AC306F31200E1
:00000001FF
