:020000040000FA
:0400000000EF10F00D
:0400080004EF10F001
:040018000CEF10F0E9
:06200000030124EF10F0C3
:0420080016EF10F0CF
:0420180017EF10F0BE
:02202A000000B4
:04202C001100D8CFF8
:1020300001F3E8CF00F3E0CF02F302C3E0FF00C3F7
:10204000E8FF01C3D8FF1000956A0C6B0D6B0E6B97
:102050000A0EC16E956A9490969096948B80FF0EAE
:10206000056F78EC10F0052F31EF10F08D908D9406
:10207000010E8C6E71EC10F0380E8C6E71EC10F05D
:102080000C0E8C6E71EC10F0060E8C6E71EC10F074
:10209000010E8C6E71EC10F08D908D94800E8C6E14
:1020A00071EC10F08D808D94050E0C6F030E0D6F8A
:1020B0000C510E270D510E270CC38CFF71EC10F044
:1020C0002B0E8C6E71EC10F00DC38CFF71EC10F0C8
:1020D0003D0E8C6E71EC10F00EC38CFF71EC10F0A5
:1020E000FFD778EC10F08D8478EC10F08D9412000E
:1020F0000F0E036FFF0E046F042F7CEF10F0032F01
:102100007AEF10F01200100E056FFF0E046FFF0E35
:10211000036F032F89EF10F0042F87EF10F0052FC6
:1021200085EF10F01200086B076B066B0A6B0A2B29
:102130000A0E095FFCE2092709C308F30A070AC36C
:1021400009F30A6B0A2B0A0E095FFCE2092709C38F
:0A21500007F30A070AC306F31200A2
:00000001FF
